{
  "_format": "hh-sol-artifact-1",
  "contractName": "LanStellar",
  "sourceName": "contracts/LanStellar.sol",
  "abi": [
    {
      "inputs": [
        {
          "internalType": "address",
          "name": "_lstToken",
          "type": "address"
        },
        {
          "internalType": "address",
          "name": "_verifier",
          "type": "address"
        }
      ],
      "stateMutability": "nonpayable",
      "type": "constructor"
    },
    {
      "inputs": [
        {
          "internalType": "address",
          "name": "sender",
          "type": "address"
        },
        {
          "internalType": "uint256",
          "name": "tokenId",
          "type": "uint256"
        },
        {
          "internalType": "address",
          "name": "owner",
          "type": "address"
        }
      ],
      "name": "ERC721IncorrectOwner",
      "type": "error"
    },
    {
      "inputs": [
        {
          "internalType": "address",
          "name": "operator",
          "type": "address"
        },
        {
          "internalType": "uint256",
          "name": "tokenId",
          "type": "uint256"
        }
      ],
      "name": "ERC721InsufficientApproval",
      "type": "error"
    },
    {
      "inputs": [
        {
          "internalType": "address",
          "name": "approver",
          "type": "address"
        }
      ],
      "name": "ERC721InvalidApprover",
      "type": "error"
    },
    {
      "inputs": [
        {
          "internalType": "address",
          "name": "operator",
          "type": "address"
        }
      ],
      "name": "ERC721InvalidOperator",
      "type": "error"
    },
    {
      "inputs": [
        {
          "internalType": "address",
          "name": "owner",
          "type": "address"
        }
      ],
      "name": "ERC721InvalidOwner",
      "type": "error"
    },
    {
      "inputs": [
        {
          "internalType": "address",
          "name": "receiver",
          "type": "address"
        }
      ],
      "name": "ERC721InvalidReceiver",
      "type": "error"
    },
    {
      "inputs": [
        {
          "internalType": "address",
          "name": "sender",
          "type": "address"
        }
      ],
      "name": "ERC721InvalidSender",
      "type": "error"
    },
    {
      "inputs": [
        {
          "internalType": "uint256",
          "name": "tokenId",
          "type": "uint256"
        }
      ],
      "name": "ERC721NonexistentToken",
      "type": "error"
    },
    {
      "inputs": [],
      "name": "ReentrancyGuardReentrantCall",
      "type": "error"
    },
    {
      "anonymous": false,
      "inputs": [
        {
          "indexed": true,
          "internalType": "address",
          "name": "owner",
          "type": "address"
        },
        {
          "indexed": true,
          "internalType": "address",
          "name": "approved",
          "type": "address"
        },
        {
          "indexed": true,
          "internalType": "uint256",
          "name": "tokenId",
          "type": "uint256"
        }
      ],
      "name": "Approval",
      "type": "event"
    },
    {
      "anonymous": false,
      "inputs": [
        {
          "indexed": true,
          "internalType": "address",
          "name": "owner",
          "type": "address"
        },
        {
          "indexed": true,
          "internalType": "address",
          "name": "operator",
          "type": "address"
        },
        {
          "indexed": false,
          "internalType": "bool",
          "name": "approved",
          "type": "bool"
        }
      ],
      "name": "ApprovalForAll",
      "type": "event"
    },
    {
      "anonymous": false,
      "inputs": [
        {
          "indexed": false,
          "internalType": "uint256",
          "name": "_fromTokenId",
          "type": "uint256"
        },
        {
          "indexed": false,
          "internalType": "uint256",
          "name": "_toTokenId",
          "type": "uint256"
        }
      ],
      "name": "BatchMetadataUpdate",
      "type": "event"
    },
    {
      "anonymous": false,
      "inputs": [
        {
          "indexed": true,
          "internalType": "address",
          "name": "user",
          "type": "address"
        }
      ],
      "name": "KYCVerified",
      "type": "event"
    },
    {
      "anonymous": false,
      "inputs": [
        {
          "indexed": false,
          "internalType": "uint256",
          "name": "newFee",
          "type": "uint256"
        }
      ],
      "name": "ListingFeeUpdated",
      "type": "event"
    },
    {
      "anonymous": false,
      "inputs": [
        {
          "indexed": false,
          "internalType": "uint256",
          "name": "_tokenId",
          "type": "uint256"
        }
      ],
      "name": "MetadataUpdate",
      "type": "event"
    },
    {
      "anonymous": false,
      "inputs": [
        {
          "indexed": true,
          "internalType": "address",
          "name": "buyer",
          "type": "address"
        },
        {
          "indexed": true,
          "internalType": "uint256",
          "name": "tokenId",
          "type": "uint256"
        },
        {
          "indexed": false,
          "internalType": "uint256",
          "name": "price",
          "type": "uint256"
        }
      ],
      "name": "PropertyBought",
      "type": "event"
    },
    {
      "anonymous": false,
      "inputs": [
        {
          "indexed": true,
          "internalType": "address",
          "name": "seller",
          "type": "address"
        },
        {
          "indexed": true,
          "internalType": "uint256",
          "name": "tokenId",
          "type": "uint256"
        },
        {
          "indexed": false,
          "internalType": "uint256",
          "name": "price",
          "type": "uint256"
        },
        {
          "indexed": false,
          "internalType": "bool",
          "name": "forSale",
          "type": "bool"
        },
        {
          "indexed": true,
          "internalType": "string",
          "name": "tokenURI",
          "type": "string"
        }
      ],
      "name": "PropertyListed",
      "type": "event"
    },
    {
      "anonymous": false,
      "inputs": [
        {
          "indexed": true,
          "internalType": "address",
          "name": "seller",
          "type": "address"
        },
        {
          "indexed": true,
          "internalType": "uint256",
          "name": "tokenId",
          "type": "uint256"
        }
      ],
      "name": "PropertyListingCanceled",
      "type": "event"
    },
    {
      "anonymous": false,
      "inputs": [
        {
          "indexed": true,
          "internalType": "address",
          "name": "buyer",
          "type": "address"
        },
        {
          "indexed": true,
          "internalType": "uint256",
          "name": "tokenId",
          "type": "uint256"
        },
        {
          "indexed": false,
          "internalType": "uint256",
          "name": "price",
          "type": "uint256"
        }
      ],
      "name": "PropertySold",
      "type": "event"
    },
    {
      "anonymous": false,
      "inputs": [
        {
          "indexed": true,
          "internalType": "address",
          "name": "from",
          "type": "address"
        },
        {
          "indexed": true,
          "internalType": "address",
          "name": "to",
          "type": "address"
        },
        {
          "indexed": true,
          "internalType": "uint256",
          "name": "tokenId",
          "type": "uint256"
        }
      ],
      "name": "Transfer",
      "type": "event"
    },
    {
      "anonymous": false,
      "inputs": [
        {
          "indexed": true,
          "internalType": "address",
          "name": "to",
          "type": "address"
        },
        {
          "indexed": false,
          "internalType": "uint256",
          "name": "amount",
          "type": "uint256"
        }
      ],
      "name": "Withdrawal",
      "type": "event"
    },
    {
      "stateMutability": "payable",
      "type": "fallback"
    },
    {
      "inputs": [],
      "name": "PRICE_PRECISION",
      "outputs": [
        {
          "internalType": "uint256",
          "name": "",
          "type": "uint256"
        }
      ],
      "stateMutability": "view",
      "type": "function"
    },
    {
      "inputs": [
        {
          "internalType": "address",
          "name": "to",
          "type": "address"
        },
        {
          "internalType": "uint256",
          "name": "tokenId",
          "type": "uint256"
        }
      ],
      "name": "approve",
      "outputs": [],
      "stateMutability": "nonpayable",
      "type": "function"
    },
    {
      "inputs": [
        {
          "internalType": "address",
          "name": "owner",
          "type": "address"
        }
      ],
      "name": "balanceOf",
      "outputs": [
        {
          "internalType": "uint256",
          "name": "",
          "type": "uint256"
        }
      ],
      "stateMutability": "view",
      "type": "function"
    },
    {
      "inputs": [
        {
          "internalType": "uint256",
          "name": "tokenId",
          "type": "uint256"
        },
        {
          "internalType": "uint256",
          "name": "_amount",
          "type": "uint256"
        }
      ],
      "name": "buyProperty",
      "outputs": [],
      "stateMutability": "nonpayable",
      "type": "function"
    },
    {
      "inputs": [
        {
          "internalType": "uint256",
          "name": "",
          "type": "uint256"
        }
      ],
      "name": "compromisedNFTs",
      "outputs": [
        {
          "internalType": "bool",
          "name": "",
          "type": "bool"
        }
      ],
      "stateMutability": "view",
      "type": "function"
    },
    {
      "inputs": [
        {
          "internalType": "string",
          "name": "tokenURI",
          "type": "string"
        },
        {
          "internalType": "uint256",
          "name": "price",
          "type": "uint256"
        }
      ],
      "name": "createToken",
      "outputs": [],
      "stateMutability": "nonpayable",
      "type": "function"
    },
    {
      "inputs": [
        {
          "internalType": "address",
          "name": "",
          "type": "address"
        }
      ],
      "name": "funds",
      "outputs": [
        {
          "internalType": "uint256",
          "name": "",
          "type": "uint256"
        }
      ],
      "stateMutability": "view",
      "type": "function"
    },
    {
      "inputs": [
        {
          "internalType": "uint256",
          "name": "tokenId",
          "type": "uint256"
        }
      ],
      "name": "getApproved",
      "outputs": [
        {
          "internalType": "address",
          "name": "",
          "type": "address"
        }
      ],
      "stateMutability": "view",
      "type": "function"
    },
    {
      "inputs": [
        {
          "internalType": "address",
          "name": "user",
          "type": "address"
        }
      ],
      "name": "getKYCStatus",
      "outputs": [
        {
          "internalType": "bool",
          "name": "isVerified",
          "type": "bool"
        }
      ],
      "stateMutability": "view",
      "type": "function"
    },
    {
      "inputs": [],
      "name": "getListedProperties",
      "outputs": [
        {
          "components": [
            {
              "internalType": "uint256",
              "name": "tokenId",
              "type": "uint256"
            },
            {
              "internalType": "address",
              "name": "seller",
              "type": "address"
            },
            {
              "internalType": "uint256",
              "name": "price",
              "type": "uint256"
            },
            {
              "internalType": "address",
              "name": "buyer",
              "type": "address"
            },
            {
              "internalType": "bool",
              "name": "forSale",
              "type": "bool"
            },
            {
              "internalType": "string",
              "name": "tokenURI",
              "type": "string"
            }
          ],
          "internalType": "struct LanStellar.Property[]",
          "name": "",
          "type": "tuple[]"
        }
      ],
      "stateMutability": "view",
      "type": "function"
    },
    {
      "inputs": [],
      "name": "getListingFee",
      "outputs": [
        {
          "internalType": "uint256",
          "name": "",
          "type": "uint256"
        }
      ],
      "stateMutability": "view",
      "type": "function"
    },
    {
      "inputs": [
        {
          "internalType": "uint256",
          "name": "tokenId",
          "type": "uint256"
        }
      ],
      "name": "getProperty",
      "outputs": [
        {
          "components": [
            {
              "internalType": "uint256",
              "name": "tokenId",
              "type": "uint256"
            },
            {
              "internalType": "address",
              "name": "seller",
              "type": "address"
            },
            {
              "internalType": "uint256",
              "name": "price",
              "type": "uint256"
            },
            {
              "internalType": "address",
              "name": "buyer",
              "type": "address"
            },
            {
              "internalType": "bool",
              "name": "forSale",
              "type": "bool"
            },
            {
              "internalType": "string",
              "name": "tokenURI",
              "type": "string"
            }
          ],
          "internalType": "struct LanStellar.Property",
          "name": "",
          "type": "tuple"
        }
      ],
      "stateMutability": "view",
      "type": "function"
    },
    {
      "inputs": [
        {
          "internalType": "address",
          "name": "seller",
          "type": "address"
        }
      ],
      "name": "getSellerFunds",
      "outputs": [
        {
          "internalType": "uint256",
          "name": "",
          "type": "uint256"
        }
      ],
      "stateMutability": "view",
      "type": "function"
    },
    {
      "inputs": [],
      "name": "getTokenCounter",
      "outputs": [
        {
          "internalType": "uint256",
          "name": "",
          "type": "uint256"
        }
      ],
      "stateMutability": "view",
      "type": "function"
    },
    {
      "inputs": [
        {
          "internalType": "uint256",
          "name": "tokenId",
          "type": "uint256"
        }
      ],
      "name": "getTokenURI",
      "outputs": [
        {
          "internalType": "string",
          "name": "",
          "type": "string"
        }
      ],
      "stateMutability": "view",
      "type": "function"
    },
    {
      "inputs": [],
      "name": "getTotalFunds",
      "outputs": [
        {
          "internalType": "uint256",
          "name": "",
          "type": "uint256"
        }
      ],
      "stateMutability": "view",
      "type": "function"
    },
    {
      "inputs": [
        {
          "internalType": "address",
          "name": "user",
          "type": "address"
        }
      ],
      "name": "getUserTokens",
      "outputs": [
        {
          "internalType": "uint256[]",
          "name": "",
          "type": "uint256[]"
        }
      ],
      "stateMutability": "view",
      "type": "function"
    },
    {
      "inputs": [
        {
          "internalType": "address",
          "name": "user",
          "type": "address"
        }
      ],
      "name": "hasUserListed",
      "outputs": [
        {
          "internalType": "bool",
          "name": "",
          "type": "bool"
        }
      ],
      "stateMutability": "view",
      "type": "function"
    },
    {
      "inputs": [
        {
          "internalType": "uint256",
          "name": "tokenId",
          "type": "uint256"
        },
        {
          "internalType": "string",
          "name": "newTokenURI",
          "type": "string"
        }
      ],
      "name": "invalidateAndUpgradeNFT",
      "outputs": [],
      "stateMutability": "nonpayable",
      "type": "function"
    },
    {
      "inputs": [
        {
          "internalType": "uint256",
          "name": "tokenId",
          "type": "uint256"
        }
      ],
      "name": "invalidateCompromisedNFT",
      "outputs": [],
      "stateMutability": "nonpayable",
      "type": "function"
    },
    {
      "inputs": [
        {
          "internalType": "address",
          "name": "owner",
          "type": "address"
        },
        {
          "internalType": "address",
          "name": "operator",
          "type": "address"
        }
      ],
      "name": "isApprovedForAll",
      "outputs": [
        {
          "internalType": "bool",
          "name": "",
          "type": "bool"
        }
      ],
      "stateMutability": "view",
      "type": "function"
    },
    {
      "inputs": [
        {
          "internalType": "uint256",
          "name": "tokenId",
          "type": "uint256"
        }
      ],
      "name": "isCompromisedNFT",
      "outputs": [
        {
          "internalType": "bool",
          "name": "",
          "type": "bool"
        }
      ],
      "stateMutability": "view",
      "type": "function"
    },
    {
      "inputs": [
        {
          "internalType": "address",
          "name": "",
          "type": "address"
        }
      ],
      "name": "isSmartWalletConnected",
      "outputs": [
        {
          "internalType": "bool",
          "name": "",
          "type": "bool"
        }
      ],
      "stateMutability": "view",
      "type": "function"
    },
    {
      "inputs": [
        {
          "internalType": "uint256",
          "name": "tokenId",
          "type": "uint256"
        },
        {
          "internalType": "uint256",
          "name": "price",
          "type": "uint256"
        },
        {
          "internalType": "string",
          "name": "ipfsHash",
          "type": "string"
        }
      ],
      "name": "listNewProperty",
      "outputs": [],
      "stateMutability": "nonpayable",
      "type": "function"
    },
    {
      "inputs": [],
      "name": "listingFee",
      "outputs": [
        {
          "internalType": "uint256",
          "name": "",
          "type": "uint256"
        }
      ],
      "stateMutability": "view",
      "type": "function"
    },
    {
      "inputs": [],
      "name": "lstToken",
      "outputs": [
        {
          "internalType": "contract IERC20",
          "name": "",
          "type": "address"
        }
      ],
      "stateMutability": "view",
      "type": "function"
    },
    {
      "inputs": [],
      "name": "name",
      "outputs": [
        {
          "internalType": "string",
          "name": "",
          "type": "string"
        }
      ],
      "stateMutability": "view",
      "type": "function"
    },
    {
      "inputs": [
        {
          "internalType": "uint256",
          "name": "tokenId",
          "type": "uint256"
        }
      ],
      "name": "ownerOf",
      "outputs": [
        {
          "internalType": "address",
          "name": "",
          "type": "address"
        }
      ],
      "stateMutability": "view",
      "type": "function"
    },
    {
      "inputs": [
        {
          "internalType": "uint256",
          "name": "",
          "type": "uint256"
        }
      ],
      "name": "properties",
      "outputs": [
        {
          "internalType": "uint256",
          "name": "tokenId",
          "type": "uint256"
        },
        {
          "internalType": "address",
          "name": "seller",
          "type": "address"
        },
        {
          "internalType": "uint256",
          "name": "price",
          "type": "uint256"
        },
        {
          "internalType": "address",
          "name": "buyer",
          "type": "address"
        },
        {
          "internalType": "bool",
          "name": "forSale",
          "type": "bool"
        },
        {
          "internalType": "string",
          "name": "tokenURI",
          "type": "string"
        }
      ],
      "stateMutability": "view",
      "type": "function"
    },
    {
      "inputs": [
        {
          "internalType": "address",
          "name": "from",
          "type": "address"
        },
        {
          "internalType": "address",
          "name": "to",
          "type": "address"
        },
        {
          "internalType": "uint256",
          "name": "tokenId",
          "type": "uint256"
        }
      ],
      "name": "safeTransferFrom",
      "outputs": [],
      "stateMutability": "nonpayable",
      "type": "function"
    },
    {
      "inputs": [
        {
          "internalType": "address",
          "name": "from",
          "type": "address"
        },
        {
          "internalType": "address",
          "name": "to",
          "type": "address"
        },
        {
          "internalType": "uint256",
          "name": "tokenId",
          "type": "uint256"
        },
        {
          "internalType": "bytes",
          "name": "data",
          "type": "bytes"
        }
      ],
      "name": "safeTransferFrom",
      "outputs": [],
      "stateMutability": "nonpayable",
      "type": "function"
    },
    {
      "inputs": [
        {
          "internalType": "address",
          "name": "operator",
          "type": "address"
        },
        {
          "internalType": "bool",
          "name": "approved",
          "type": "bool"
        }
      ],
      "name": "setApprovalForAll",
      "outputs": [],
      "stateMutability": "nonpayable",
      "type": "function"
    },
    {
      "inputs": [
        {
          "internalType": "bytes4",
          "name": "interfaceId",
          "type": "bytes4"
        }
      ],
      "name": "supportsInterface",
      "outputs": [
        {
          "internalType": "bool",
          "name": "",
          "type": "bool"
        }
      ],
      "stateMutability": "view",
      "type": "function"
    },
    {
      "inputs": [],
      "name": "symbol",
      "outputs": [
        {
          "internalType": "string",
          "name": "",
          "type": "string"
        }
      ],
      "stateMutability": "view",
      "type": "function"
    },
    {
      "inputs": [],
      "name": "tokenIdCounter",
      "outputs": [
        {
          "internalType": "uint256",
          "name": "",
          "type": "uint256"
        }
      ],
      "stateMutability": "view",
      "type": "function"
    },
    {
      "inputs": [
        {
          "internalType": "uint256",
          "name": "tokenId",
          "type": "uint256"
        }
      ],
      "name": "tokenURI",
      "outputs": [
        {
          "internalType": "string",
          "name": "",
          "type": "string"
        }
      ],
      "stateMutability": "view",
      "type": "function"
    },
    {
      "inputs": [
        {
          "internalType": "address",
          "name": "from",
          "type": "address"
        },
        {
          "internalType": "address",
          "name": "to",
          "type": "address"
        },
        {
          "internalType": "uint256",
          "name": "tokenId",
          "type": "uint256"
        }
      ],
      "name": "transferFrom",
      "outputs": [],
      "stateMutability": "nonpayable",
      "type": "function"
    },
    {
      "inputs": [
        {
          "internalType": "uint256",
          "name": "_listingFee",
          "type": "uint256"
        }
      ],
      "name": "updateListingFee",
      "outputs": [],
      "stateMutability": "nonpayable",
      "type": "function"
    },
    {
      "inputs": [
        {
          "internalType": "uint256",
          "name": "tokenId",
          "type": "uint256"
        },
        {
          "internalType": "uint256",
          "name": "newPrice",
          "type": "uint256"
        },
        {
          "internalType": "string",
          "name": "ipfsHash",
          "type": "string"
        }
      ],
      "name": "updatePropertyPrice",
      "outputs": [],
      "stateMutability": "nonpayable",
      "type": "function"
    },
    {
      "inputs": [],
      "name": "verifier",
      "outputs": [
        {
          "internalType": "contract IVerifier",
          "name": "",
          "type": "address"
        }
      ],
      "stateMutability": "view",
      "type": "function"
    },
    {
      "inputs": [],
      "name": "verifyKYC",
      "outputs": [],
      "stateMutability": "nonpayable",
      "type": "function"
    },
    {
      "inputs": [
        {
          "internalType": "uint256",
          "name": "tokenId",
          "type": "uint256"
        }
      ],
      "name": "withdrawFunds",
      "outputs": [],
      "stateMutability": "nonpayable",
      "type": "function"
    },
    {
      "stateMutability": "payable",
      "type": "receive"
    }
  ],
  "bytecode": "0x6080604052670de0b6b3a7640000600c553480156200001d57600080fd5b506040516200593638038062005936833981810160405281019062000043919062000226565b6040518060400160405280601981526020017f4c616e5374656c6c61722050726f706572747920546f6b656e000000000000008152506040518060400160405280600481526020017f4c535054000000000000000000000000000000000000000000000000000000008152508160009081620000c09190620004e7565b508060019081620000d29190620004e7565b5050506001600781905550733ec8593f930ea45ea58c968260e6e9ff53fc934f600a60006101000a81548173ffffffffffffffffffffffffffffffffffffffff021916908373ffffffffffffffffffffffffffffffffffffffff16021790555081600960006101000a81548173ffffffffffffffffffffffffffffffffffffffff021916908373ffffffffffffffffffffffffffffffffffffffff16021790555080600d60006101000a81548173ffffffffffffffffffffffffffffffffffffffff021916908373ffffffffffffffffffffffffffffffffffffffff1602179055505050620005ce565b600080fd5b600073ffffffffffffffffffffffffffffffffffffffff82169050919050565b6000620001ee82620001c1565b9050919050565b6200020081620001e1565b81146200020c57600080fd5b50565b6000815190506200022081620001f5565b92915050565b6000806040838503121562000240576200023f620001bc565b5b600062000250858286016200020f565b925050602062000263858286016200020f565b9150509250929050565b600081519050919050565b7f4e487b7100000000000000000000000000000000000000000000000000000000600052604160045260246000fd5b7f4e487b7100000000000000000000000000000000000000000000000000000000600052602260045260246000fd5b60006002820490506001821680620002ef57607f821691505b602082108103620003055762000304620002a7565b5b50919050565b60008190508160005260206000209050919050565b60006020601f8301049050919050565b600082821b905092915050565b6000600883026200036f7fffffffffffffffffffffffffffffffffffffffffffffffffffffffffffffffff8262000330565b6200037b868362000330565b95508019841693508086168417925050509392505050565b6000819050919050565b6000819050919050565b6000620003c8620003c2620003bc8462000393565b6200039d565b62000393565b9050919050565b6000819050919050565b620003e483620003a7565b620003fc620003f382620003cf565b8484546200033d565b825550505050565b600090565b6200041362000404565b62000420818484620003d9565b505050565b5b8181101562000448576200043c60008262000409565b60018101905062000426565b5050565b601f821115620004975762000461816200030b565b6200046c8462000320565b810160208510156200047c578190505b620004946200048b8562000320565b83018262000425565b50505b505050565b600082821c905092915050565b6000620004bc600019846008026200049c565b1980831691505092915050565b6000620004d78383620004a9565b9150826002028217905092915050565b620004f2826200026d565b67ffffffffffffffff8111156200050e576200050d62000278565b5b6200051a8254620002d6565b620005278282856200044c565b600060209050601f8311600181146200055f57600084156200054a578287015190505b620005568582620004c9565b865550620005c6565b601f1984166200056f866200030b565b60005b82811015620005995784890151825560018201915060208501945060208101905062000572565b86831015620005b95784890151620005b5601f891682620004a9565b8355505b6001600288020188555050505b505050505050565b61535880620005de6000396000f3fe6080604052600436106102545760003560e01c80636e02007d11610139578063b88d4fde116100b6578063e2ae93fb1161007a578063e2ae93fb146109ad578063e985e9c5146109ea578063eb8bbd2814610a27578063f37678ae14610a52578063f79d91ae14610a7b578063f7b1080814610aa457610294565b8063b88d4fde146108b6578063b8fe6abe146108df578063bcb6dedb1461090a578063c87b56dd14610947578063d95bab4d1461098457610294565b806395082d25116100fd57806395082d25146107e357806395d89b411461080e57806398bdf6f514610839578063a22cb46514610864578063a772c9271461088d57610294565b80636e02007d146106ea57806370a082311461071557806372b3b62014610752578063809207181461077b5780638dec2493146107a657610294565b80632b7ac3f3116101d25780634ac80d97116101965780634ac80d97146105a2578063509bd4ca146105cb578063519dc8d2146106085780636352211e1461064557806367973097146106825780636a1b7ecc146106bf57610294565b80632b7ac3f3146104ab57806332665ffb146104d657806334bc153f146105135780633bb3a24d1461053c57806342842e0e1461057957610294565b80630fb6d6d1116102195780630fb6d6d1146103da578063155dd5ee1461040557806319bfbaf91461042e57806323b872dd1461046b578063254ed91c1461049457610294565b80620c8df0146102cf57806301ffc9a71461030c57806306fdde0314610349578063081812fc14610374578063095ea7b3146103b157610294565b36610294576040517f08c379a000000000000000000000000000000000000000000000000000000000815260040161028b90613bef565b60405180910390fd5b6040517f08c379a00000000000000000000000000000000000000000000000000000000081526004016102c690613bef565b60405180910390fd5b3480156102db57600080fd5b506102f660048036038101906102f19190613c81565b610ae6565b6040516103039190613cc9565b60405180910390f35b34801561031857600080fd5b50610333600480360381019061032e9190613d3c565b610b3c565b6040516103409190613cc9565b60405180910390f35b34801561035557600080fd5b5061035e610b9d565b60405161036b9190613de8565b60405180910390f35b34801561038057600080fd5b5061039b60048036038101906103969190613e40565b610c2f565b6040516103a89190613e7c565b60405180910390f35b3480156103bd57600080fd5b506103d860048036038101906103d39190613e97565b610c4b565b005b3480156103e657600080fd5b506103ef610c61565b6040516103fc9190614099565b60405180910390f35b34801561041157600080fd5b5061042c60048036038101906104279190613e40565b610f2b565b005b34801561043a57600080fd5b5061045560048036038101906104509190613e40565b611381565b6040516104629190613cc9565b60405180910390f35b34801561047757600080fd5b50610492600480360381019061048d91906140bb565b6113a1565b005b3480156104a057600080fd5b506104a96114a3565b005b3480156104b757600080fd5b506104c061162b565b6040516104cd919061416d565b60405180910390f35b3480156104e257600080fd5b506104fd60048036038101906104f89190613e40565b611651565b60405161050a9190614211565b60405180910390f35b34801561051f57600080fd5b5061053a60048036038101906105359190614368565b6117eb565b005b34801561054857600080fd5b50610563600480360381019061055e9190613e40565b61192e565b6040516105709190613de8565b60405180910390f35b34801561058557600080fd5b506105a0600480360381019061059b91906140bb565b6119d6565b005b3480156105ae57600080fd5b506105c960048036038101906105c49190613e40565b6119f6565b005b3480156105d757600080fd5b506105f260048036038101906105ed9190613c81565b611a62565b6040516105ff91906143e6565b60405180910390f35b34801561061457600080fd5b5061062f600480360381019061062a9190613c81565b611aab565b60405161063c91906144b0565b60405180910390f35b34801561065157600080fd5b5061066c60048036038101906106679190613e40565b611ba7565b6040516106799190613e7c565b60405180910390f35b34801561068e57600080fd5b506106a960048036038101906106a49190613c81565b611bb9565b6040516106b69190613cc9565b60405180910390f35b3480156106cb57600080fd5b506106d4611bd9565b6040516106e191906143e6565b60405180910390f35b3480156106f657600080fd5b506106ff611bdf565b60405161070c91906143e6565b60405180910390f35b34801561072157600080fd5b5061073c60048036038101906107379190613c81565b611be9565b60405161074991906143e6565b60405180910390f35b34801561075e57600080fd5b50610779600480360381019061077491906144d2565b611ca3565b005b34801561078757600080fd5b50610790611f1a565b60405161079d919061454f565b60405180910390f35b3480156107b257600080fd5b506107cd60048036038101906107c89190613c81565b611f40565b6040516107da9190613cc9565b60405180910390f35b3480156107ef57600080fd5b506107f8611f96565b60405161080591906143e6565b60405180910390f35b34801561081a57600080fd5b50610823611fa3565b6040516108309190613de8565b60405180910390f35b34801561084557600080fd5b5061084e612035565b60405161085b91906143e6565b60405180910390f35b34801561087057600080fd5b5061088b60048036038101906108869190614596565b61203b565b005b34801561089957600080fd5b506108b460048036038101906108af91906145d6565b612051565b005b3480156108c257600080fd5b506108dd60048036038101906108d891906146b7565b612565565b005b3480156108eb57600080fd5b506108f4612582565b60405161090191906143e6565b60405180910390f35b34801561091657600080fd5b50610931600480360381019061092c9190613e40565b61258c565b60405161093e9190613cc9565b60405180910390f35b34801561095357600080fd5b5061096e60048036038101906109699190613e40565b6125b6565b60405161097b9190613de8565b60405180910390f35b34801561099057600080fd5b506109ab60048036038101906109a6919061473a565b6126c9565b005b3480156109b957600080fd5b506109d460048036038101906109cf9190613c81565b6127a1565b6040516109e191906143e6565b60405180910390f35b3480156109f657600080fd5b50610a116004803603810190610a0c9190614796565b6127b9565b604051610a1e9190613cc9565b60405180910390f35b348015610a3357600080fd5b50610a3c61284d565b604051610a4991906143e6565b60405180910390f35b348015610a5e57600080fd5b50610a796004803603810190610a749190614368565b612855565b005b348015610a8757600080fd5b50610aa26004803603810190610a9d9190613e40565b6129ea565b005b348015610ab057600080fd5b50610acb6004803603810190610ac69190613e40565b612a2b565b604051610add969594939291906147d6565b60405180910390f35b6000600e60008373ffffffffffffffffffffffffffffffffffffffff1673ffffffffffffffffffffffffffffffffffffffff16815260200190815260200160002060009054906101000a900460ff169050919050565b6000634906490660e01b7bffffffffffffffffffffffffffffffffffffffffffffffffffffffff1916827bffffffffffffffffffffffffffffffffffffffffffffffffffffffff19161480610b965750610b9582612b3c565b5b9050919050565b606060008054610bac9061486d565b80601f0160208091040260200160405190810160405280929190818152602001828054610bd89061486d565b8015610c255780601f10610bfa57610100808354040283529160200191610c25565b820191906000526020600020905b815481529060010190602001808311610c0857829003601f168201915b5050505050905090565b6000610c3a82612c1e565b50610c4482612ca6565b9050919050565b610c5d8282610c58612ce3565b612ceb565b5050565b60606000600b549050600080600190505b828111610cc457600f600082815260200190815260200160002060030160149054906101000a900460ff1615610cb1578180610cad906148cd565b9250505b8080610cbc906148cd565b915050610c72565b5060008167ffffffffffffffff811115610ce157610ce061423d565b5b604051908082528060200260200182016040528015610d1a57816020015b610d07613b08565b815260200190600190039081610cff5790505b509050600080600190505b848111610f2057600f600082815260200190815260200160002060030160149054906101000a900460ff1615610f0d57600f60008281526020019081526020016000206040518060c0016040529081600082015481526020016001820160009054906101000a900473ffffffffffffffffffffffffffffffffffffffff1673ffffffffffffffffffffffffffffffffffffffff1673ffffffffffffffffffffffffffffffffffffffff168152602001600282015481526020016003820160009054906101000a900473ffffffffffffffffffffffffffffffffffffffff1673ffffffffffffffffffffffffffffffffffffffff1673ffffffffffffffffffffffffffffffffffffffff1681526020016003820160149054906101000a900460ff16151515158152602001600482018054610e5e9061486d565b80601f0160208091040260200160405190810160405280929190818152602001828054610e8a9061486d565b8015610ed75780601f10610eac57610100808354040283529160200191610ed7565b820191906000526020600020905b815481529060010190602001808311610eba57829003601f168201915b505050505081525050838381518110610ef357610ef2614915565b5b60200260200101819052508180610f09906148cd565b9250505b8080610f18906148cd565b915050610d25565b508194505050505090565b610f33612cfd565b6000600f600083815260200190815260200160002090506000601060003373ffffffffffffffffffffffffffffffffffffffff1673ffffffffffffffffffffffffffffffffffffffff16815260200190815260200160002054905060008111610fd1576040517f08c379a0000000000000000000000000000000000000000000000000000000008152600401610fc890614990565b60405180910390fd5b8160020154600960009054906101000a900473ffffffffffffffffffffffffffffffffffffffff1673ffffffffffffffffffffffffffffffffffffffff166370a082318460030160009054906101000a900473ffffffffffffffffffffffffffffffffffffffff166040518263ffffffff1660e01b81526004016110559190613e7c565b602060405180830381865afa158015611072573d6000803e3d6000fd5b505050506040513d601f19601f8201168201806040525081019061109691906149c5565b1061132f57600960009054906101000a900473ffffffffffffffffffffffffffffffffffffffff1673ffffffffffffffffffffffffffffffffffffffff166323b872dd8360030160009054906101000a900473ffffffffffffffffffffffffffffffffffffffff1633846040518463ffffffff1660e01b815260040161111e939291906149f2565b6020604051808303816000875af115801561113d573d6000803e3d6000fd5b505050506040513d601f19601f820116820180604052508101906111619190614a3e565b6111a0576040517f08c379a000000000000000000000000000000000000000000000000000000000815260040161119790614ab7565b60405180910390fd5b6000601060003373ffffffffffffffffffffffffffffffffffffffff1673ffffffffffffffffffffffffffffffffffffffff16815260200190815260200160002081905550611214338360030160009054906101000a900473ffffffffffffffffffffffffffffffffffffffff16856119d6565b8160030160009054906101000a900473ffffffffffffffffffffffffffffffffffffffff168260010160006101000a81548173ffffffffffffffffffffffffffffffffffffffff021916908373ffffffffffffffffffffffffffffffffffffffff16021790555060008260030160006101000a81548173ffffffffffffffffffffffffffffffffffffffff021916908373ffffffffffffffffffffffffffffffffffffffff16021790555060008260030160146101000a81548160ff0219169083151502179055503373ffffffffffffffffffffffffffffffffffffffff167f7fcf532c15f0a6db0bd6d0e038bea71d30d808c7d98cb3bf7268a95bf5081b658260405161132291906143e6565b60405180910390a2611374565b60008260030160006101000a81548173ffffffffffffffffffffffffffffffffffffffff021916908373ffffffffffffffffffffffffffffffffffffffff1602179055505b505061137e612d43565b50565b60126020528060005260406000206000915054906101000a900460ff1681565b600073ffffffffffffffffffffffffffffffffffffffff168273ffffffffffffffffffffffffffffffffffffffff16036114135760006040517f64a0ae9200000000000000000000000000000000000000000000000000000000815260040161140a9190613e7c565b60405180910390fd5b60006114278383611422612ce3565b612d4d565b90508373ffffffffffffffffffffffffffffffffffffffff168173ffffffffffffffffffffffffffffffffffffffff161461149d578382826040517f64283d7b00000000000000000000000000000000000000000000000000000000815260040161149493929190614ad7565b60405180910390fd5b50505050565b6114ab612cfd565b600d60009054906101000a900473ffffffffffffffffffffffffffffffffffffffff1673ffffffffffffffffffffffffffffffffffffffff166363a9c3d7336040518263ffffffff1660e01b81526004016115069190613e7c565b602060405180830381865afa158015611523573d6000803e3d6000fd5b505050506040513d601f19601f820116820180604052508101906115479190614a3e565b611586576040517f08c379a000000000000000000000000000000000000000000000000000000000815260040161157d90614b5a565b60405180910390fd5b6001600e60003373ffffffffffffffffffffffffffffffffffffffff1673ffffffffffffffffffffffffffffffffffffffff16815260200190815260200160002060006101000a81548160ff0219169083151502179055503373ffffffffffffffffffffffffffffffffffffffff167f65c84ee842eafc291d1272a6e3d10f8c454c4288e63f5db3f7be2b3012f321a960405160405180910390a2611629612d43565b565b600d60009054906101000a900473ffffffffffffffffffffffffffffffffffffffff1681565b611659613b08565b600f60008381526020019081526020016000206040518060c0016040529081600082015481526020016001820160009054906101000a900473ffffffffffffffffffffffffffffffffffffffff1673ffffffffffffffffffffffffffffffffffffffff1673ffffffffffffffffffffffffffffffffffffffff168152602001600282015481526020016003820160009054906101000a900473ffffffffffffffffffffffffffffffffffffffff1673ffffffffffffffffffffffffffffffffffffffff1673ffffffffffffffffffffffffffffffffffffffff1681526020016003820160149054906101000a900460ff161515151581526020016004820180546117629061486d565b80601f016020809104026020016040519081016040528092919081815260200182805461178e9061486d565b80156117db5780601f106117b0576101008083540402835291602001916117db565b820191906000526020600020905b8154815290600101906020018083116117be57829003601f168201915b5050505050815250509050919050565b823373ffffffffffffffffffffffffffffffffffffffff1661180c82611ba7565b73ffffffffffffffffffffffffffffffffffffffff1614611862576040517f08c379a000000000000000000000000000000000000000000000000000000000815260040161185990614bc6565b60405180910390fd5b600083116118a5576040517f08c379a000000000000000000000000000000000000000000000000000000000815260040161189c90614c32565b60405180910390fd5b82600f600086815260200190815260200160002060020181905550816040516118ce9190614c8e565b6040518091039020843373ffffffffffffffffffffffffffffffffffffffff167fa4043420082106818c012932beaa592e9685cdce8d3ce850b5dd7f6d33c395c9866001604051611920929190614ca5565b60405180910390a450505050565b6060600f600083815260200190815260200160002060040180546119519061486d565b80601f016020809104026020016040519081016040528092919081815260200182805461197d9061486d565b80156119ca5780601f1061199f576101008083540402835291602001916119ca565b820191906000526020600020905b8154815290600101906020018083116119ad57829003601f168201915b50505050509050919050565b6119f183838360405180602001604052806000815250612565565b505050565b6012600082815260200190815260200160002060009054906101000a900460ff16611a56576040517f08c379a0000000000000000000000000000000000000000000000000000000008152600401611a4d90614d1a565b60405180910390fd5b611a5f81612f67565b50565b6000601060008373ffffffffffffffffffffffffffffffffffffffff1673ffffffffffffffffffffffffffffffffffffffff168152602001908152602001600020549050919050565b60606000611ab883611be9565b905060008167ffffffffffffffff811115611ad657611ad561423d565b5b604051908082528060200260200182016040528015611b045781602001602082028036833780820191505090505b509050600080600b5490506000600190505b818111611b9a578673ffffffffffffffffffffffffffffffffffffffff16611b3d82611ba7565b73ffffffffffffffffffffffffffffffffffffffff1603611b875780848481518110611b6c57611b6b614915565b5b6020026020010181815250508280611b83906148cd565b9350505b8080611b92906148cd565b915050611b16565b5082945050505050919050565b6000611bb282612c1e565b9050919050565b60136020528060005260406000206000915054906101000a900460ff1681565b600c5481565b6000600b54905090565b60008073ffffffffffffffffffffffffffffffffffffffff168273ffffffffffffffffffffffffffffffffffffffff1603611c5c5760006040517f89c62b64000000000000000000000000000000000000000000000000000000008152600401611c539190613e7c565b60405180910390fd5b600360008373ffffffffffffffffffffffffffffffffffffffff1673ffffffffffffffffffffffffffffffffffffffff168152602001908152602001600020549050919050565b600e60003373ffffffffffffffffffffffffffffffffffffffff1673ffffffffffffffffffffffffffffffffffffffff16815260200190815260200160002060009054906101000a900460ff16611d2f576040517f08c379a0000000000000000000000000000000000000000000000000000000008152600401611d2690614d86565b60405180910390fd5b600b6000815480929190611d42906148cd565b91905055506000600b549050611d583382612fed565b611d6281846130e6565b6040518060c001604052808281526020013373ffffffffffffffffffffffffffffffffffffffff168152602001838152602001600073ffffffffffffffffffffffffffffffffffffffff16815260200160011515815260200184815250600f60008381526020019081526020016000206000820151816000015560208201518160010160006101000a81548173ffffffffffffffffffffffffffffffffffffffff021916908373ffffffffffffffffffffffffffffffffffffffff1602179055506040820151816002015560608201518160030160006101000a81548173ffffffffffffffffffffffffffffffffffffffff021916908373ffffffffffffffffffffffffffffffffffffffff16021790555060808201518160030160146101000a81548160ff02191690831515021790555060a0820151816004019081611ea99190614f48565b5090505082604051611ebb9190614c8e565b6040518091039020813373ffffffffffffffffffffffffffffffffffffffff167fa4043420082106818c012932beaa592e9685cdce8d3ce850b5dd7f6d33c395c9856001604051611f0d929190614ca5565b60405180910390a4505050565b600960009054906101000a900473ffffffffffffffffffffffffffffffffffffffff1681565b6000601160008373ffffffffffffffffffffffffffffffffffffffff1673ffffffffffffffffffffffffffffffffffffffff16815260200190815260200160002060009054906101000a900460ff169050919050565b68056bc75e2d6310000081565b606060018054611fb29061486d565b80601f0160208091040260200160405190810160405280929190818152602001828054611fde9061486d565b801561202b5780601f106120005761010080835404028352916020019161202b565b820191906000526020600020905b81548152906001019060200180831161200e57829003601f168201915b5050505050905090565b600b5481565b61204d612046612ce3565b83836130f4565b5050565b81600f600082815260200190815260200160002060030160149054906101000a900460ff166120b5576040517f08c379a00000000000000000000000000000000000000000000000000000000081526004016120ac90615066565b60405180910390fd5b6120bd612cfd565b6000600f60008581526020019081526020016000209050338160030160006101000a81548173ffffffffffffffffffffffffffffffffffffffff021916908373ffffffffffffffffffffffffffffffffffffffff16021790555060006064826002015461212a91906150b5565b905080826002015461213c91906150e6565b84101561217e576040517f08c379a000000000000000000000000000000000000000000000000000000000815260040161217590615166565b60405180910390fd5b80826002015461218e91906150e6565b600960009054906101000a900473ffffffffffffffffffffffffffffffffffffffff1673ffffffffffffffffffffffffffffffffffffffff166370a08231336040518263ffffffff1660e01b81526004016121e99190613e7c565b602060405180830381865afa158015612206573d6000803e3d6000fd5b505050506040513d601f19601f8201168201806040525081019061222a91906149c5565b101561226b576040517f08c379a0000000000000000000000000000000000000000000000000000000008152600401612262906151d2565b60405180910390fd5b600960009054906101000a900473ffffffffffffffffffffffffffffffffffffffff1673ffffffffffffffffffffffffffffffffffffffff166323b872dd3330846040518463ffffffff1660e01b81526004016122ca939291906149f2565b6020604051808303816000875af11580156122e9573d6000803e3d6000fd5b505050506040513d601f19601f8201168201806040525081019061230d9190614a3e565b61234c576040517f08c379a000000000000000000000000000000000000000000000000000000000815260040161234390614ab7565b60405180910390fd5b600960009054906101000a900473ffffffffffffffffffffffffffffffffffffffff1673ffffffffffffffffffffffffffffffffffffffff1663095ea7b33084600201546040518363ffffffff1660e01b81526004016123ad9291906151f2565b6020604051808303816000875af11580156123cc573d6000803e3d6000fd5b505050506040513d601f19601f820116820180604052508101906123f09190614a3e565b61242f576040517f08c379a000000000000000000000000000000000000000000000000000000000815260040161242690614ab7565b60405180910390fd5b8160020154601060008460010160009054906101000a900473ffffffffffffffffffffffffffffffffffffffff1673ffffffffffffffffffffffffffffffffffffffff1673ffffffffffffffffffffffffffffffffffffffff16815260200190815260200160002060008282546124a691906150e6565b9250508190555080601060003073ffffffffffffffffffffffffffffffffffffffff1673ffffffffffffffffffffffffffffffffffffffff16815260200190815260200160002060008282546124fc91906150e6565b92505081905550843373ffffffffffffffffffffffffffffffffffffffff167f17b4722101958f228ab97d24ff9624947f4ad9586617e0a8d5450f8248e8f57f846002015460405161254e91906143e6565b60405180910390a35050612560612d43565b505050565b6125708484846113a1565b61257c84848484613263565b50505050565b6000600c54905090565b60006012600083815260200190815260200160002060009054906101000a900460ff169050919050565b60606125c182612c1e565b5060006006600084815260200190815260200160002080546125e29061486d565b80601f016020809104026020016040519081016040528092919081815260200182805461260e9061486d565b801561265b5780601f106126305761010080835404028352916020019161265b565b820191906000526020600020905b81548152906001019060200180831161263e57829003601f168201915b50505050509050600061266c61341a565b905060008151036126815781925050506126c4565b6000825111156126b657808260405160200161269e92919061521b565b604051602081830303815290604052925050506126c4565b6126bf84613431565b925050505b919050565b813373ffffffffffffffffffffffffffffffffffffffff166126ea82611ba7565b73ffffffffffffffffffffffffffffffffffffffff1614612740576040517f08c379a000000000000000000000000000000000000000000000000000000000815260040161273790614bc6565b60405180910390fd5b60016012600085815260200190815260200160002060006101000a81548160ff0219169083151502179055506000600b6000815480929190612781906148cd565b9190505590506127913382612fed565b61279b81846130e6565b50505050565b60106020528060005260406000206000915090505481565b6000600560008473ffffffffffffffffffffffffffffffffffffffff1673ffffffffffffffffffffffffffffffffffffffff16815260200190815260200160002060008373ffffffffffffffffffffffffffffffffffffffff1673ffffffffffffffffffffffffffffffffffffffff16815260200190815260200160002060009054906101000a900460ff16905092915050565b600047905090565b600e60003373ffffffffffffffffffffffffffffffffffffffff1673ffffffffffffffffffffffffffffffffffffffff16815260200190815260200160002060009054906101000a900460ff166128e1576040517f08c379a00000000000000000000000000000000000000000000000000000000081526004016128d890614d86565b60405180910390fd5b6000600f60008581526020019081526020016000209050838160000181905550338160010160006101000a81548173ffffffffffffffffffffffffffffffffffffffff021916908373ffffffffffffffffffffffffffffffffffffffff16021790555082816002018190555060018160030160146101000a81548160ff0219169083151502179055508181600401908161297b9190614f48565b508160405161298a9190614c8e565b6040518091039020843373ffffffffffffffffffffffffffffffffffffffff167fa4043420082106818c012932beaa592e9685cdce8d3ce850b5dd7f6d33c395c98660016040516129dc929190614ca5565b60405180910390a450505050565b80600c819055507f5fb4654f1efe30c6141eaa6855ffcb27e0b361d899b05e21b1a4d0b3e71e14db81604051612a2091906143e6565b60405180910390a150565b600f6020528060005260406000206000915090508060000154908060010160009054906101000a900473ffffffffffffffffffffffffffffffffffffffff16908060020154908060030160009054906101000a900473ffffffffffffffffffffffffffffffffffffffff16908060030160149054906101000a900460ff1690806004018054612ab99061486d565b80601f0160208091040260200160405190810160405280929190818152602001828054612ae59061486d565b8015612b325780601f10612b0757610100808354040283529160200191612b32565b820191906000526020600020905b815481529060010190602001808311612b1557829003601f168201915b5050505050905086565b60007f80ac58cd000000000000000000000000000000000000000000000000000000007bffffffffffffffffffffffffffffffffffffffffffffffffffffffff1916827bffffffffffffffffffffffffffffffffffffffffffffffffffffffff19161480612c0757507f5b5e139f000000000000000000000000000000000000000000000000000000007bffffffffffffffffffffffffffffffffffffffffffffffffffffffff1916827bffffffffffffffffffffffffffffffffffffffffffffffffffffffff1916145b80612c175750612c168261349a565b5b9050919050565b600080612c2a83613504565b9050600073ffffffffffffffffffffffffffffffffffffffff168173ffffffffffffffffffffffffffffffffffffffff1603612c9d57826040517f7e273289000000000000000000000000000000000000000000000000000000008152600401612c9491906143e6565b60405180910390fd5b80915050919050565b60006004600083815260200190815260200160002060009054906101000a900473ffffffffffffffffffffffffffffffffffffffff169050919050565b600033905090565b612cf88383836001613541565b505050565b600260075403612d39576040517f3ee5aeb500000000000000000000000000000000000000000000000000000000815260040160405180910390fd5b6002600781905550565b6001600781905550565b600080612d5984613504565b9050600073ffffffffffffffffffffffffffffffffffffffff168373ffffffffffffffffffffffffffffffffffffffff1614612d9b57612d9a818486613706565b5b600073ffffffffffffffffffffffffffffffffffffffff168173ffffffffffffffffffffffffffffffffffffffff1614612e2c57612ddd600085600080613541565b6001600360008373ffffffffffffffffffffffffffffffffffffffff1673ffffffffffffffffffffffffffffffffffffffff168152602001908152602001600020600082825403925050819055505b600073ffffffffffffffffffffffffffffffffffffffff168573ffffffffffffffffffffffffffffffffffffffff1614612eaf576001600360008773ffffffffffffffffffffffffffffffffffffffff1673ffffffffffffffffffffffffffffffffffffffff168152602001908152602001600020600082825401925050819055505b846002600086815260200190815260200160002060006101000a81548173ffffffffffffffffffffffffffffffffffffffff021916908373ffffffffffffffffffffffffffffffffffffffff160217905550838573ffffffffffffffffffffffffffffffffffffffff168273ffffffffffffffffffffffffffffffffffffffff167fddf252ad1be2c89b69c2b068fc378daa952ba7f163c4a11628f55a4df523b3ef60405160405180910390a4809150509392505050565b6000612f766000836000612d4d565b9050600073ffffffffffffffffffffffffffffffffffffffff168173ffffffffffffffffffffffffffffffffffffffff1603612fe957816040517f7e273289000000000000000000000000000000000000000000000000000000008152600401612fe091906143e6565b60405180910390fd5b5050565b600073ffffffffffffffffffffffffffffffffffffffff168273ffffffffffffffffffffffffffffffffffffffff160361305f5760006040517f64a0ae920000000000000000000000000000000000000000000000000000000081526004016130569190613e7c565b60405180910390fd5b600061306d83836000612d4d565b9050600073ffffffffffffffffffffffffffffffffffffffff168173ffffffffffffffffffffffffffffffffffffffff16146130e15760006040517f73c6ac6e0000000000000000000000000000000000000000000000000000000081526004016130d89190613e7c565b60405180910390fd5b505050565b6130f082826137ca565b5050565b600073ffffffffffffffffffffffffffffffffffffffff168273ffffffffffffffffffffffffffffffffffffffff160361316557816040517f5b08ba1800000000000000000000000000000000000000000000000000000000815260040161315c9190613e7c565b60405180910390fd5b80600560008573ffffffffffffffffffffffffffffffffffffffff1673ffffffffffffffffffffffffffffffffffffffff16815260200190815260200160002060008473ffffffffffffffffffffffffffffffffffffffff1673ffffffffffffffffffffffffffffffffffffffff16815260200190815260200160002060006101000a81548160ff0219169083151502179055508173ffffffffffffffffffffffffffffffffffffffff168373ffffffffffffffffffffffffffffffffffffffff167f17307eab39ab6107e8899845ad3d59bd9653f200f220920489ca2b5937696c31836040516132569190613cc9565b60405180910390a3505050565b60008373ffffffffffffffffffffffffffffffffffffffff163b1115613414578273ffffffffffffffffffffffffffffffffffffffff1663150b7a026132a7612ce3565b8685856040518563ffffffff1660e01b81526004016132c99493929190615294565b6020604051808303816000875af192505050801561330557506040513d601f19601f8201168201806040525081019061330291906152f5565b60015b613389573d8060008114613335576040519150601f19603f3d011682016040523d82523d6000602084013e61333a565b606091505b50600081510361338157836040517f64a0ae920000000000000000000000000000000000000000000000000000000081526004016133789190613e7c565b60405180910390fd5b805181602001fd5b63150b7a0260e01b7bffffffffffffffffffffffffffffffffffffffffffffffffffffffff1916817bffffffffffffffffffffffffffffffffffffffffffffffffffffffff19161461341257836040517f64a0ae920000000000000000000000000000000000000000000000000000000081526004016134099190613e7c565b60405180910390fd5b505b50505050565b606060405180602001604052806000815250905090565b606061343c82612c1e565b50600061344761341a565b905060008151116134675760405180602001604052806000815250613492565b8061347184613826565b60405160200161348292919061521b565b6040516020818303038152906040525b915050919050565b60007f01ffc9a7000000000000000000000000000000000000000000000000000000007bffffffffffffffffffffffffffffffffffffffffffffffffffffffff1916827bffffffffffffffffffffffffffffffffffffffffffffffffffffffff1916149050919050565b60006002600083815260200190815260200160002060009054906101000a900473ffffffffffffffffffffffffffffffffffffffff169050919050565b808061357a5750600073ffffffffffffffffffffffffffffffffffffffff168273ffffffffffffffffffffffffffffffffffffffff1614155b156136ae57600061358a84612c1e565b9050600073ffffffffffffffffffffffffffffffffffffffff168373ffffffffffffffffffffffffffffffffffffffff16141580156135f557508273ffffffffffffffffffffffffffffffffffffffff168173ffffffffffffffffffffffffffffffffffffffff1614155b8015613608575061360681846127b9565b155b1561364a57826040517fa9fbf51f0000000000000000000000000000000000000000000000000000000081526004016136419190613e7c565b60405180910390fd5b81156136ac57838573ffffffffffffffffffffffffffffffffffffffff168273ffffffffffffffffffffffffffffffffffffffff167f8c5be1e5ebec7d5bd14f71427d1e84f3dd0314c0f7b2291e5b200ac8c7c3b92560405160405180910390a45b505b836004600085815260200190815260200160002060006101000a81548173ffffffffffffffffffffffffffffffffffffffff021916908373ffffffffffffffffffffffffffffffffffffffff16021790555050505050565b6137118383836138f4565b6137c557600073ffffffffffffffffffffffffffffffffffffffff168373ffffffffffffffffffffffffffffffffffffffff160361378657806040517f7e27328900000000000000000000000000000000000000000000000000000000815260040161377d91906143e6565b60405180910390fd5b81816040517f177e802f0000000000000000000000000000000000000000000000000000000081526004016137bc9291906151f2565b60405180910390fd5b505050565b806006600084815260200190815260200160002090816137ea9190614f48565b507ff8e1a15aba9398e019f0b49df1a4fde98ee17ae345cb5f6b5e2c27f5033e8ce78260405161381a91906143e6565b60405180910390a15050565b606060006001613835846139b5565b01905060008167ffffffffffffffff8111156138545761385361423d565b5b6040519080825280601f01601f1916602001820160405280156138865781602001600182028036833780820191505090505b509050600082602001820190505b6001156138e9578080600190039150507f3031323334353637383961626364656600000000000000000000000000000000600a86061a8153600a85816138dd576138dc615086565b5b04945060008503613894575b819350505050919050565b60008073ffffffffffffffffffffffffffffffffffffffff168373ffffffffffffffffffffffffffffffffffffffff16141580156139ac57508273ffffffffffffffffffffffffffffffffffffffff168473ffffffffffffffffffffffffffffffffffffffff16148061396d575061396c84846127b9565b5b806139ab57508273ffffffffffffffffffffffffffffffffffffffff1661399383612ca6565b73ffffffffffffffffffffffffffffffffffffffff16145b5b90509392505050565b600080600090507a184f03e93ff9f4daa797ed6e38ed64bf6a1f0100000000000000008310613a13577a184f03e93ff9f4daa797ed6e38ed64bf6a1f0100000000000000008381613a0957613a08615086565b5b0492506040810190505b6d04ee2d6d415b85acef81000000008310613a50576d04ee2d6d415b85acef81000000008381613a4657613a45615086565b5b0492506020810190505b662386f26fc100008310613a7f57662386f26fc100008381613a7557613a74615086565b5b0492506010810190505b6305f5e1008310613aa8576305f5e1008381613a9e57613a9d615086565b5b0492506008810190505b6127108310613acd576127108381613ac357613ac2615086565b5b0492506004810190505b60648310613af05760648381613ae657613ae5615086565b5b0492506002810190505b600a8310613aff576001810190505b80915050919050565b6040518060c0016040528060008152602001600073ffffffffffffffffffffffffffffffffffffffff16815260200160008152602001600073ffffffffffffffffffffffffffffffffffffffff168152602001600015158152602001606081525090565b600082825260208201905092915050565b7f5468697320636f6e747261637420646f6573206e6f742061636365707420457460008201527f6865720000000000000000000000000000000000000000000000000000000000602082015250565b6000613bd9602383613b6c565b9150613be482613b7d565b604082019050919050565b60006020820190508181036000830152613c0881613bcc565b9050919050565b6000604051905090565b600080fd5b600080fd5b600073ffffffffffffffffffffffffffffffffffffffff82169050919050565b6000613c4e82613c23565b9050919050565b613c5e81613c43565b8114613c6957600080fd5b50565b600081359050613c7b81613c55565b92915050565b600060208284031215613c9757613c96613c19565b5b6000613ca584828501613c6c565b91505092915050565b60008115159050919050565b613cc381613cae565b82525050565b6000602082019050613cde6000830184613cba565b92915050565b60007fffffffff0000000000000000000000000000000000000000000000000000000082169050919050565b613d1981613ce4565b8114613d2457600080fd5b50565b600081359050613d3681613d10565b92915050565b600060208284031215613d5257613d51613c19565b5b6000613d6084828501613d27565b91505092915050565b600081519050919050565b60005b83811015613d92578082015181840152602081019050613d77565b60008484015250505050565b6000601f19601f8301169050919050565b6000613dba82613d69565b613dc48185613b6c565b9350613dd4818560208601613d74565b613ddd81613d9e565b840191505092915050565b60006020820190508181036000830152613e028184613daf565b905092915050565b6000819050919050565b613e1d81613e0a565b8114613e2857600080fd5b50565b600081359050613e3a81613e14565b92915050565b600060208284031215613e5657613e55613c19565b5b6000613e6484828501613e2b565b91505092915050565b613e7681613c43565b82525050565b6000602082019050613e916000830184613e6d565b92915050565b60008060408385031215613eae57613ead613c19565b5b6000613ebc85828601613c6c565b9250506020613ecd85828601613e2b565b9150509250929050565b600081519050919050565b600082825260208201905092915050565b6000819050602082019050919050565b613f0c81613e0a565b82525050565b613f1b81613c43565b82525050565b613f2a81613cae565b82525050565b600082825260208201905092915050565b6000613f4c82613d69565b613f568185613f30565b9350613f66818560208601613d74565b613f6f81613d9e565b840191505092915050565b600060c083016000830151613f926000860182613f03565b506020830151613fa56020860182613f12565b506040830151613fb86040860182613f03565b506060830151613fcb6060860182613f12565b506080830151613fde6080860182613f21565b5060a083015184820360a0860152613ff68282613f41565b9150508091505092915050565b600061400f8383613f7a565b905092915050565b6000602082019050919050565b600061402f82613ed7565b6140398185613ee2565b93508360208202850161404b85613ef3565b8060005b8581101561408757848403895281516140688582614003565b945061407383614017565b925060208a0199505060018101905061404f565b50829750879550505050505092915050565b600060208201905081810360008301526140b38184614024565b905092915050565b6000806000606084860312156140d4576140d3613c19565b5b60006140e286828701613c6c565b93505060206140f386828701613c6c565b925050604061410486828701613e2b565b9150509250925092565b6000819050919050565b600061413361412e61412984613c23565b61410e565b613c23565b9050919050565b600061414582614118565b9050919050565b60006141578261413a565b9050919050565b6141678161414c565b82525050565b6000602082019050614182600083018461415e565b92915050565b600060c0830160008301516141a06000860182613f03565b5060208301516141b36020860182613f12565b5060408301516141c66040860182613f03565b5060608301516141d96060860182613f12565b5060808301516141ec6080860182613f21565b5060a083015184820360a08601526142048282613f41565b9150508091505092915050565b6000602082019050818103600083015261422b8184614188565b905092915050565b600080fd5b600080fd5b7f4e487b7100000000000000000000000000000000000000000000000000000000600052604160045260246000fd5b61427582613d9e565b810181811067ffffffffffffffff821117156142945761429361423d565b5b80604052505050565b60006142a7613c0f565b90506142b3828261426c565b919050565b600067ffffffffffffffff8211156142d3576142d261423d565b5b6142dc82613d9e565b9050602081019050919050565b82818337600083830152505050565b600061430b614306846142b8565b61429d565b90508281526020810184848401111561432757614326614238565b5b6143328482856142e9565b509392505050565b600082601f83011261434f5761434e614233565b5b813561435f8482602086016142f8565b91505092915050565b60008060006060848603121561438157614380613c19565b5b600061438f86828701613e2b565b93505060206143a086828701613e2b565b925050604084013567ffffffffffffffff8111156143c1576143c0613c1e565b5b6143cd8682870161433a565b9150509250925092565b6143e081613e0a565b82525050565b60006020820190506143fb60008301846143d7565b92915050565b600081519050919050565b600082825260208201905092915050565b6000819050602082019050919050565b60006144398383613f03565b60208301905092915050565b6000602082019050919050565b600061445d82614401565b614467818561440c565b93506144728361441d565b8060005b838110156144a357815161448a888261442d565b975061449583614445565b925050600181019050614476565b5085935050505092915050565b600060208201905081810360008301526144ca8184614452565b905092915050565b600080604083850312156144e9576144e8613c19565b5b600083013567ffffffffffffffff81111561450757614506613c1e565b5b6145138582860161433a565b925050602061452485828601613e2b565b9150509250929050565b60006145398261413a565b9050919050565b6145498161452e565b82525050565b60006020820190506145646000830184614540565b92915050565b61457381613cae565b811461457e57600080fd5b50565b6000813590506145908161456a565b92915050565b600080604083850312156145ad576145ac613c19565b5b60006145bb85828601613c6c565b92505060206145cc85828601614581565b9150509250929050565b600080604083850312156145ed576145ec613c19565b5b60006145fb85828601613e2b565b925050602061460c85828601613e2b565b9150509250929050565b600067ffffffffffffffff8211156146315761463061423d565b5b61463a82613d9e565b9050602081019050919050565b600061465a61465584614616565b61429d565b90508281526020810184848401111561467657614675614238565b5b6146818482856142e9565b509392505050565b600082601f83011261469e5761469d614233565b5b81356146ae848260208601614647565b91505092915050565b600080600080608085870312156146d1576146d0613c19565b5b60006146df87828801613c6c565b94505060206146f087828801613c6c565b935050604061470187828801613e2b565b925050606085013567ffffffffffffffff81111561472257614721613c1e565b5b61472e87828801614689565b91505092959194509250565b6000806040838503121561475157614750613c19565b5b600061475f85828601613e2b565b925050602083013567ffffffffffffffff8111156147805761477f613c1e565b5b61478c8582860161433a565b9150509250929050565b600080604083850312156147ad576147ac613c19565b5b60006147bb85828601613c6c565b92505060206147cc85828601613c6c565b9150509250929050565b600060c0820190506147eb60008301896143d7565b6147f86020830188613e6d565b61480560408301876143d7565b6148126060830186613e6d565b61481f6080830185613cba565b81810360a08301526148318184613daf565b9050979650505050505050565b7f4e487b7100000000000000000000000000000000000000000000000000000000600052602260045260246000fd5b6000600282049050600182168061488557607f821691505b6020821081036148985761489761483e565b5b50919050565b7f4e487b7100000000000000000000000000000000000000000000000000000000600052601160045260246000fd5b60006148d882613e0a565b91507fffffffffffffffffffffffffffffffffffffffffffffffffffffffffffffffff820361490a5761490961489e565b5b600182019050919050565b7f4e487b7100000000000000000000000000000000000000000000000000000000600052603260045260246000fd5b7f4e6f2070726f636565647320746f207769746864726177000000000000000000600082015250565b600061497a601783613b6c565b915061498582614944565b602082019050919050565b600060208201905081810360008301526149a98161496d565b9050919050565b6000815190506149bf81613e14565b92915050565b6000602082840312156149db576149da613c19565b5b60006149e9848285016149b0565b91505092915050565b6000606082019050614a076000830186613e6d565b614a146020830185613e6d565b614a2160408301846143d7565b949350505050565b600081519050614a388161456a565b92915050565b600060208284031215614a5457614a53613c19565b5b6000614a6284828501614a29565b91505092915050565b7f546f6b656e207472616e73666572206661696c65640000000000000000000000600082015250565b6000614aa1601583613b6c565b9150614aac82614a6b565b602082019050919050565b60006020820190508181036000830152614ad081614a94565b9050919050565b6000606082019050614aec6000830186613e6d565b614af960208301856143d7565b614b066040830184613e6d565b949350505050565b7f4b594320766572696669636174696f6e206661696c6564000000000000000000600082015250565b6000614b44601783613b6c565b9150614b4f82614b0e565b602082019050919050565b60006020820190508181036000830152614b7381614b37565b9050919050565b7f43616c6c6572206973206e6f7420746865206f776e6572000000000000000000600082015250565b6000614bb0601783613b6c565b9150614bbb82614b7a565b602082019050919050565b60006020820190508181036000830152614bdf81614ba3565b9050919050565b7f5072696365206d7573742062652061626f7665207a65726f0000000000000000600082015250565b6000614c1c601883613b6c565b9150614c2782614be6565b602082019050919050565b60006020820190508181036000830152614c4b81614c0f565b9050919050565b600081905092915050565b6000614c6882613d69565b614c728185614c52565b9350614c82818560208601613d74565b80840191505092915050565b6000614c9a8284614c5d565b915081905092915050565b6000604082019050614cba60008301856143d7565b614cc76020830184613cba565b9392505050565b7f4e4654206973206e6f7420636f6d70726f6d6973656400000000000000000000600082015250565b6000614d04601683613b6c565b9150614d0f82614cce565b602082019050919050565b60006020820190508181036000830152614d3381614cf7565b9050919050565b7f4b5943206e6f7420766572696669656400000000000000000000000000000000600082015250565b6000614d70601083613b6c565b9150614d7b82614d3a565b602082019050919050565b60006020820190508181036000830152614d9f81614d63565b9050919050565b60008190508160005260206000209050919050565b60006020601f8301049050919050565b600082821b905092915050565b600060088302614e087fffffffffffffffffffffffffffffffffffffffffffffffffffffffffffffffff82614dcb565b614e128683614dcb565b95508019841693508086168417925050509392505050565b6000614e45614e40614e3b84613e0a565b61410e565b613e0a565b9050919050565b6000819050919050565b614e5f83614e2a565b614e73614e6b82614e4c565b848454614dd8565b825550505050565b600090565b614e88614e7b565b614e93818484614e56565b505050565b5b81811015614eb757614eac600082614e80565b600181019050614e99565b5050565b601f821115614efc57614ecd81614da6565b614ed684614dbb565b81016020851015614ee5578190505b614ef9614ef185614dbb565b830182614e98565b50505b505050565b600082821c905092915050565b6000614f1f60001984600802614f01565b1980831691505092915050565b6000614f388383614f0e565b9150826002028217905092915050565b614f5182613d69565b67ffffffffffffffff811115614f6a57614f6961423d565b5b614f74825461486d565b614f7f828285614ebb565b600060209050601f831160018114614fb25760008415614fa0578287015190505b614faa8582614f2c565b865550615012565b601f198416614fc086614da6565b60005b82811015614fe857848901518255600182019150602085019450602081019050614fc3565b868310156150055784890151615001601f891682614f0e565b8355505b6001600288020188555050505b505050505050565b7f4974656d206e6f74206c697374656420666f722073616c650000000000000000600082015250565b6000615050601883613b6c565b915061505b8261501a565b602082019050919050565b6000602082019050818103600083015261507f81615043565b9050919050565b7f4e487b7100000000000000000000000000000000000000000000000000000000600052601260045260246000fd5b60006150c082613e0a565b91506150cb83613e0a565b9250826150db576150da615086565b5b828204905092915050565b60006150f182613e0a565b91506150fc83613e0a565b92508282019050808211156151145761511361489e565b5b92915050565b7f507269636520706c757320666565206e6f74206d657400000000000000000000600082015250565b6000615150601683613b6c565b915061515b8261511a565b602082019050919050565b6000602082019050818103600083015261517f81615143565b9050919050565b7f696e73756666696369656e742066756e64000000000000000000000000000000600082015250565b60006151bc601183613b6c565b91506151c782615186565b602082019050919050565b600060208201905081810360008301526151eb816151af565b9050919050565b60006040820190506152076000830185613e6d565b61521460208301846143d7565b9392505050565b60006152278285614c5d565b91506152338284614c5d565b91508190509392505050565b600081519050919050565b600082825260208201905092915050565b60006152668261523f565b615270818561524a565b9350615280818560208601613d74565b61528981613d9e565b840191505092915050565b60006080820190506152a96000830187613e6d565b6152b66020830186613e6d565b6152c360408301856143d7565b81810360608301526152d5818461525b565b905095945050505050565b6000815190506152ef81613d10565b92915050565b60006020828403121561530b5761530a613c19565b5b6000615319848285016152e0565b9150509291505056fea2646970667358221220576fca679e6e2769f77847489353cf81bf944a7e8608cb77093b4673c1a760df64736f6c63430008180033",
  "linkReferences": {},
  "deployedLinkReferences": {}
}