{
  "_format": "hh-sol-artifact-1",
  "contractName": "Verifier",
  "sourceName": "contracts/Verifier.sol",
  "abi": [
    {
      "anonymous": false,
      "inputs": [
        {
          "indexed": true,
          "internalType": "address",
          "name": "user",
          "type": "address"
        }
      ],
      "name": "AddressAuthorized",
      "type": "event"
    },
    {
      "inputs": [
        {
          "internalType": "address",
          "name": "user",
          "type": "address"
        }
      ],
      "name": "authorizeAddress",
      "outputs": [],
      "stateMutability": "nonpayable",
      "type": "function"
    },
    {
      "inputs": [
        {
          "internalType": "address",
          "name": "",
          "type": "address"
        }
      ],
      "name": "authorizedAddresses",
      "outputs": [
        {
          "internalType": "bool",
          "name": "",
          "type": "bool"
        }
      ],
      "stateMutability": "view",
      "type": "function"
    },
    {
      "inputs": [
        {
          "internalType": "address",
          "name": "user",
          "type": "address"
        }
      ],
      "name": "verify",
      "outputs": [
        {
          "internalType": "bool",
          "name": "isValid",
          "type": "bool"
        }
      ],
      "stateMutability": "view",
      "type": "function"
    }
  ],
  "bytecode": "0x608060405234801561001057600080fd5b506103bc806100206000396000f3fe608060405234801561001057600080fd5b50600436106100415760003560e01c80634a5db3b51461004657806363a9c3d714610062578063f19e207e14610092575b600080fd5b610060600480360381019061005b91906102a6565b6100c2565b005b61007c600480360381019061007791906102a6565b6101ce565b60405161008991906102ee565b60405180910390f35b6100ac60048036038101906100a791906102a6565b610223565b6040516100b991906102ee565b60405180910390f35b600073ffffffffffffffffffffffffffffffffffffffff168173ffffffffffffffffffffffffffffffffffffffff1603610131576040517f08c379a000000000000000000000000000000000000000000000000000000000815260040161012890610366565b60405180910390fd5b60016000808373ffffffffffffffffffffffffffffffffffffffff1673ffffffffffffffffffffffffffffffffffffffff16815260200190815260200160002060006101000a81548160ff0219169083151502179055508073ffffffffffffffffffffffffffffffffffffffff167faa4a1856deca699ff17682b11b9090fe141669ccd7c1951ab8605ad8c9ab177560405160405180910390a250565b60008060008373ffffffffffffffffffffffffffffffffffffffff1673ffffffffffffffffffffffffffffffffffffffff16815260200190815260200160002060009054906101000a900460ff169050919050565b60006020528060005260406000206000915054906101000a900460ff1681565b600080fd5b600073ffffffffffffffffffffffffffffffffffffffff82169050919050565b600061027382610248565b9050919050565b61028381610268565b811461028e57600080fd5b50565b6000813590506102a08161027a565b92915050565b6000602082840312156102bc576102bb610243565b5b60006102ca84828501610291565b91505092915050565b60008115159050919050565b6102e8816102d3565b82525050565b600060208201905061030360008301846102df565b92915050565b600082825260208201905092915050565b7f43616e6e6f7420617574686f72697a65207a65726f2061646472657373000000600082015250565b6000610350601d83610309565b915061035b8261031a565b602082019050919050565b6000602082019050818103600083015261037f81610343565b905091905056fea26469706673582212209173e5b8ff44c17ddb52d7cccfe5849e8381b6b80feed643b8ad823f8c96797364736f6c63430008180033",
  "linkReferences": {},
  "deployedLinkReferences": {}
}